{
  "_format": "hh-sol-artifact-1",
  "contractName": "CarbonCreditToken",
  "sourceName": "contracts/CarbonCreditToken.sol",
  "abi": [
    {
      "inputs": [],
      "stateMutability": "nonpayable",
      "type": "constructor"
    },
    {
      "inputs": [],
      "name": "AccessControlBadConfirmation",
      "type": "error"
    },
    {
      "inputs": [
        {
          "internalType": "address",
          "name": "account",
          "type": "address"
        },
        {
          "internalType": "bytes32",
          "name": "neededRole",
          "type": "bytes32"
        }
      ],
      "name": "AccessControlUnauthorizedAccount",
      "type": "error"
    },
    {
      "inputs": [
        {
          "internalType": "address",
          "name": "spender",
          "type": "address"
        },
        {
          "internalType": "uint256",
          "name": "allowance",
          "type": "uint256"
        },
        {
          "internalType": "uint256",
          "name": "needed",
          "type": "uint256"
        }
      ],
      "name": "ERC20InsufficientAllowance",
      "type": "error"
    },
    {
      "inputs": [
        {
          "internalType": "address",
          "name": "sender",
          "type": "address"
        },
        {
          "internalType": "uint256",
          "name": "balance",
          "type": "uint256"
        },
        {
          "internalType": "uint256",
          "name": "needed",
          "type": "uint256"
        }
      ],
      "name": "ERC20InsufficientBalance",
      "type": "error"
    },
    {
      "inputs": [
        {
          "internalType": "address",
          "name": "approver",
          "type": "address"
        }
      ],
      "name": "ERC20InvalidApprover",
      "type": "error"
    },
    {
      "inputs": [
        {
          "internalType": "address",
          "name": "receiver",
          "type": "address"
        }
      ],
      "name": "ERC20InvalidReceiver",
      "type": "error"
    },
    {
      "inputs": [
        {
          "internalType": "address",
          "name": "sender",
          "type": "address"
        }
      ],
      "name": "ERC20InvalidSender",
      "type": "error"
    },
    {
      "inputs": [
        {
          "internalType": "address",
          "name": "spender",
          "type": "address"
        }
      ],
      "name": "ERC20InvalidSpender",
      "type": "error"
    },
    {
      "anonymous": false,
      "inputs": [
        {
          "indexed": true,
          "internalType": "address",
          "name": "owner",
          "type": "address"
        },
        {
          "indexed": true,
          "internalType": "address",
          "name": "spender",
          "type": "address"
        },
        {
          "indexed": false,
          "internalType": "uint256",
          "name": "value",
          "type": "uint256"
        }
      ],
      "name": "Approval",
      "type": "event"
    },
    {
      "anonymous": false,
      "inputs": [
        {
          "indexed": true,
          "internalType": "address",
          "name": "burner",
          "type": "address"
        },
        {
          "indexed": false,
          "internalType": "uint256",
          "name": "amount",
          "type": "uint256"
        },
        {
          "indexed": false,
          "internalType": "string",
          "name": "reason",
          "type": "string"
        }
      ],
      "name": "CreditRetired",
      "type": "event"
    },
    {
      "anonymous": false,
      "inputs": [
        {
          "indexed": true,
          "internalType": "bytes32",
          "name": "role",
          "type": "bytes32"
        },
        {
          "indexed": true,
          "internalType": "bytes32",
          "name": "previousAdminRole",
          "type": "bytes32"
        },
        {
          "indexed": true,
          "internalType": "bytes32",
          "name": "newAdminRole",
          "type": "bytes32"
        }
      ],
      "name": "RoleAdminChanged",
      "type": "event"
    },
    {
      "anonymous": false,
      "inputs": [
        {
          "indexed": true,
          "internalType": "bytes32",
          "name": "role",
          "type": "bytes32"
        },
        {
          "indexed": true,
          "internalType": "address",
          "name": "account",
          "type": "address"
        },
        {
          "indexed": true,
          "internalType": "address",
          "name": "sender",
          "type": "address"
        }
      ],
      "name": "RoleGranted",
      "type": "event"
    },
    {
      "anonymous": false,
      "inputs": [
        {
          "indexed": true,
          "internalType": "bytes32",
          "name": "role",
          "type": "bytes32"
        },
        {
          "indexed": true,
          "internalType": "address",
          "name": "account",
          "type": "address"
        },
        {
          "indexed": true,
          "internalType": "address",
          "name": "sender",
          "type": "address"
        }
      ],
      "name": "RoleRevoked",
      "type": "event"
    },
    {
      "anonymous": false,
      "inputs": [
        {
          "indexed": true,
          "internalType": "address",
          "name": "from",
          "type": "address"
        },
        {
          "indexed": true,
          "internalType": "address",
          "name": "to",
          "type": "address"
        },
        {
          "indexed": false,
          "internalType": "uint256",
          "name": "value",
          "type": "uint256"
        }
      ],
      "name": "Transfer",
      "type": "event"
    },
    {
      "inputs": [],
      "name": "DEFAULT_ADMIN_ROLE",
      "outputs": [
        {
          "internalType": "bytes32",
          "name": "",
          "type": "bytes32"
        }
      ],
      "stateMutability": "view",
      "type": "function"
    },
    {
      "inputs": [],
      "name": "MINTER_ROLE",
      "outputs": [
        {
          "internalType": "bytes32",
          "name": "",
          "type": "bytes32"
        }
      ],
      "stateMutability": "view",
      "type": "function"
    },
    {
      "inputs": [
        {
          "internalType": "address",
          "name": "owner",
          "type": "address"
        },
        {
          "internalType": "address",
          "name": "spender",
          "type": "address"
        }
      ],
      "name": "allowance",
      "outputs": [
        {
          "internalType": "uint256",
          "name": "",
          "type": "uint256"
        }
      ],
      "stateMutability": "view",
      "type": "function"
    },
    {
      "inputs": [
        {
          "internalType": "address",
          "name": "spender",
          "type": "address"
        },
        {
          "internalType": "uint256",
          "name": "value",
          "type": "uint256"
        }
      ],
      "name": "approve",
      "outputs": [
        {
          "internalType": "bool",
          "name": "",
          "type": "bool"
        }
      ],
      "stateMutability": "nonpayable",
      "type": "function"
    },
    {
      "inputs": [
        {
          "internalType": "address",
          "name": "account",
          "type": "address"
        }
      ],
      "name": "balanceOf",
      "outputs": [
        {
          "internalType": "uint256",
          "name": "",
          "type": "uint256"
        }
      ],
      "stateMutability": "view",
      "type": "function"
    },
    {
      "inputs": [
        {
          "internalType": "uint256",
          "name": "value",
          "type": "uint256"
        }
      ],
      "name": "burn",
      "outputs": [],
      "stateMutability": "nonpayable",
      "type": "function"
    },
    {
      "inputs": [
        {
          "internalType": "address",
          "name": "account",
          "type": "address"
        },
        {
          "internalType": "uint256",
          "name": "value",
          "type": "uint256"
        }
      ],
      "name": "burnFrom",
      "outputs": [],
      "stateMutability": "nonpayable",
      "type": "function"
    },
    {
      "inputs": [],
      "name": "decimals",
      "outputs": [
        {
          "internalType": "uint8",
          "name": "",
          "type": "uint8"
        }
      ],
      "stateMutability": "view",
      "type": "function"
    },
    {
      "inputs": [
        {
          "internalType": "bytes32",
          "name": "role",
          "type": "bytes32"
        }
      ],
      "name": "getRoleAdmin",
      "outputs": [
        {
          "internalType": "bytes32",
          "name": "",
          "type": "bytes32"
        }
      ],
      "stateMutability": "view",
      "type": "function"
    },
    {
      "inputs": [
        {
          "internalType": "bytes32",
          "name": "role",
          "type": "bytes32"
        },
        {
          "internalType": "address",
          "name": "account",
          "type": "address"
        }
      ],
      "name": "grantRole",
      "outputs": [],
      "stateMutability": "nonpayable",
      "type": "function"
    },
    {
      "inputs": [
        {
          "internalType": "bytes32",
          "name": "role",
          "type": "bytes32"
        },
        {
          "internalType": "address",
          "name": "account",
          "type": "address"
        }
      ],
      "name": "hasRole",
      "outputs": [
        {
          "internalType": "bool",
          "name": "",
          "type": "bool"
        }
      ],
      "stateMutability": "view",
      "type": "function"
    },
    {
      "inputs": [
        {
          "internalType": "address",
          "name": "to",
          "type": "address"
        },
        {
          "internalType": "uint256",
          "name": "amount",
          "type": "uint256"
        }
      ],
      "name": "mint",
      "outputs": [],
      "stateMutability": "nonpayable",
      "type": "function"
    },
    {
      "inputs": [],
      "name": "name",
      "outputs": [
        {
          "internalType": "string",
          "name": "",
          "type": "string"
        }
      ],
      "stateMutability": "view",
      "type": "function"
    },
    {
      "inputs": [
        {
          "internalType": "bytes32",
          "name": "role",
          "type": "bytes32"
        },
        {
          "internalType": "address",
          "name": "callerConfirmation",
          "type": "address"
        }
      ],
      "name": "renounceRole",
      "outputs": [],
      "stateMutability": "nonpayable",
      "type": "function"
    },
    {
      "inputs": [
        {
          "internalType": "uint256",
          "name": "amount",
          "type": "uint256"
        },
        {
          "internalType": "string",
          "name": "reason",
          "type": "string"
        }
      ],
      "name": "retire",
      "outputs": [],
      "stateMutability": "nonpayable",
      "type": "function"
    },
    {
      "inputs": [
        {
          "internalType": "bytes32",
          "name": "role",
          "type": "bytes32"
        },
        {
          "internalType": "address",
          "name": "account",
          "type": "address"
        }
      ],
      "name": "revokeRole",
      "outputs": [],
      "stateMutability": "nonpayable",
      "type": "function"
    },
    {
      "inputs": [
        {
          "internalType": "bytes4",
          "name": "interfaceId",
          "type": "bytes4"
        }
      ],
      "name": "supportsInterface",
      "outputs": [
        {
          "internalType": "bool",
          "name": "",
          "type": "bool"
        }
      ],
      "stateMutability": "view",
      "type": "function"
    },
    {
      "inputs": [],
      "name": "symbol",
      "outputs": [
        {
          "internalType": "string",
          "name": "",
          "type": "string"
        }
      ],
      "stateMutability": "view",
      "type": "function"
    },
    {
      "inputs": [],
      "name": "totalSupply",
      "outputs": [
        {
          "internalType": "uint256",
          "name": "",
          "type": "uint256"
        }
      ],
      "stateMutability": "view",
      "type": "function"
    },
    {
      "inputs": [
        {
          "internalType": "address",
          "name": "to",
          "type": "address"
        },
        {
          "internalType": "uint256",
          "name": "value",
          "type": "uint256"
        }
      ],
      "name": "transfer",
      "outputs": [
        {
          "internalType": "bool",
          "name": "",
          "type": "bool"
        }
      ],
      "stateMutability": "nonpayable",
      "type": "function"
    },
    {
      "inputs": [
        {
          "internalType": "address",
          "name": "from",
          "type": "address"
        },
        {
          "internalType": "address",
          "name": "to",
          "type": "address"
        },
        {
          "internalType": "uint256",
          "name": "value",
          "type": "uint256"
        }
      ],
      "name": "transferFrom",
      "outputs": [
        {
          "internalType": "bool",
          "name": "",
          "type": "bool"
        }
      ],
      "stateMutability": "nonpayable",
      "type": "function"
    }
  ],
  "bytecode": "0x60806040523480156200001157600080fd5b506040518060400160405280601881526020017f416c67616520436172626f6e20437265646974204265746100000000000000008152506040518060400160405280600581526020017f4143432d4200000000000000000000000000000000000000000000000000000081525081600390816200008f9190620004e4565b508060049081620000a19190620004e4565b505050620000b96000801b33620000f360201b60201c565b50620000ec7f9f2df0fed2c77648de5860a4cc508cd0818c85b8b8a1ab4ceeef8d981c8956a633620000f360201b60201c565b50620005cb565b6000620001078383620001f760201b60201c565b620001ec5760016005600085815260200190815260200160002060000160008473ffffffffffffffffffffffffffffffffffffffff1673ffffffffffffffffffffffffffffffffffffffff16815260200190815260200160002060006101000a81548160ff021916908315150217905550620001886200026260201b60201c565b73ffffffffffffffffffffffffffffffffffffffff168273ffffffffffffffffffffffffffffffffffffffff16847f2f8788117e7eff1d82e926ec794901d17c78024a50270940304540a733656f0d60405160405180910390a460019050620001f1565b600090505b92915050565b60006005600084815260200190815260200160002060000160008373ffffffffffffffffffffffffffffffffffffffff1673ffffffffffffffffffffffffffffffffffffffff16815260200190815260200160002060009054906101000a900460ff16905092915050565b600033905090565b600081519050919050565b7f4e487b7100000000000000000000000000000000000000000000000000000000600052604160045260246000fd5b7f4e487b7100000000000000000000000000000000000000000000000000000000600052602260045260246000fd5b60006002820490506001821680620002ec57607f821691505b602082108103620003025762000301620002a4565b5b50919050565b60008190508160005260206000209050919050565b60006020601f8301049050919050565b600082821b905092915050565b6000600883026200036c7fffffffffffffffffffffffffffffffffffffffffffffffffffffffffffffffff826200032d565b6200037886836200032d565b95508019841693508086168417925050509392505050565b6000819050919050565b6000819050919050565b6000620003c5620003bf620003b98462000390565b6200039a565b62000390565b9050919050565b6000819050919050565b620003e183620003a4565b620003f9620003f082620003cc565b8484546200033a565b825550505050565b600090565b6200041062000401565b6200041d818484620003d6565b505050565b5b8181101562000445576200043960008262000406565b60018101905062000423565b5050565b601f82111562000494576200045e8162000308565b62000469846200031d565b8101602085101562000479578190505b6200049162000488856200031d565b83018262000422565b50505b505050565b600082821c905092915050565b6000620004b96000198460080262000499565b1980831691505092915050565b6000620004d48383620004a6565b9150826002028217905092915050565b620004ef826200026a565b67ffffffffffffffff8111156200050b576200050a62000275565b5b620005178254620002d3565b6200052482828562000449565b600060209050601f8311600181146200055c576000841562000547578287015190505b620005538582620004c6565b865550620005c3565b601f1984166200056c8662000308565b60005b8281101562000596578489015182556001820191506020850194506020810190506200056f565b86831015620005b65784890151620005b2601f891682620004a6565b8355505b6001600288020188555050505b505050505050565b611bbf80620005db6000396000f3fe608060405234801561001057600080fd5b50600436106101375760003560e01c806342966c68116100b857806395d89b411161007c57806395d89b411461035e578063a217fddf1461037c578063a9059cbb1461039a578063d5391393146103ca578063d547741f146103e8578063dd62ed3e1461040457610137565b806342966c68146102aa5780635f09ffbd146102c657806370a08231146102e257806379cc67901461031257806391d148541461032e57610137565b8063248a9ca3116100ff578063248a9ca3146102085780632f2ff15d14610238578063313ce5671461025457806336568abe1461027257806340c10f191461028e57610137565b806301ffc9a71461013c57806306fdde031461016c578063095ea7b31461018a57806318160ddd146101ba57806323b872dd146101d8575b600080fd5b610156600480360381019061015191906113e5565b610434565b604051610163919061142d565b60405180910390f35b6101746104ae565b60405161018191906114d8565b60405180910390f35b6101a4600480360381019061019f919061158e565b610540565b6040516101b1919061142d565b60405180910390f35b6101c2610563565b6040516101cf91906115dd565b60405180910390f35b6101f260048036038101906101ed91906115f8565b61056d565b6040516101ff919061142d565b60405180910390f35b610222600480360381019061021d9190611681565b61059c565b60405161022f91906116bd565b60405180910390f35b610252600480360381019061024d91906116d8565b6105bc565b005b61025c6105de565b6040516102699190611734565b60405180910390f35b61028c600480360381019061028791906116d8565b6105e7565b005b6102a860048036038101906102a3919061158e565b610662565b005b6102c460048036038101906102bf919061174f565b61069b565b005b6102e060048036038101906102db91906118b1565b6106af565b005b6102fc60048036038101906102f7919061190d565b61070c565b60405161030991906115dd565b60405180910390f35b61032c6004803603810190610327919061158e565b610754565b005b610348600480360381019061034391906116d8565b610774565b604051610355919061142d565b60405180910390f35b6103666107df565b60405161037391906114d8565b60405180910390f35b610384610871565b60405161039191906116bd565b60405180910390f35b6103b460048036038101906103af919061158e565b610878565b6040516103c1919061142d565b60405180910390f35b6103d261089b565b6040516103df91906116bd565b60405180910390f35b61040260048036038101906103fd91906116d8565b6108bf565b005b61041e6004803603810190610419919061193a565b6108e1565b60405161042b91906115dd565b60405180910390f35b60007f7965db0b000000000000000000000000000000000000000000000000000000007bffffffffffffffffffffffffffffffffffffffffffffffffffffffff1916827bffffffffffffffffffffffffffffffffffffffffffffffffffffffff191614806104a757506104a682610968565b5b9050919050565b6060600380546104bd906119a9565b80601f01602080910402602001604051908101604052809291908181526020018280546104e9906119a9565b80156105365780601f1061050b57610100808354040283529160200191610536565b820191906000526020600020905b81548152906001019060200180831161051957829003601f168201915b5050505050905090565b60008061054b6109d2565b90506105588185856109da565b600191505092915050565b6000600254905090565b6000806105786109d2565b90506105858582856109ec565b610590858585610a81565b60019150509392505050565b600060056000838152602001908152602001600020600101549050919050565b6105c58261059c565b6105ce81610b75565b6105d88383610b89565b50505050565b60006012905090565b6105ef6109d2565b73ffffffffffffffffffffffffffffffffffffffff168173ffffffffffffffffffffffffffffffffffffffff1614610653576040517f6697b23200000000000000000000000000000000000000000000000000000000815260040160405180910390fd5b61065d8282610c7b565b505050565b7f9f2df0fed2c77648de5860a4cc508cd0818c85b8b8a1ab4ceeef8d981c8956a661068c81610b75565b6106968383610d6e565b505050565b6106ac6106a66109d2565b82610df0565b50565b6106b88261069b565b3373ffffffffffffffffffffffffffffffffffffffff167fff60c673836ca064dc282560dfa7e03a7a01724e272c200d5c78e5918304509983836040516107009291906119da565b60405180910390a25050565b60008060008373ffffffffffffffffffffffffffffffffffffffff1673ffffffffffffffffffffffffffffffffffffffff168152602001908152602001600020549050919050565b610766826107606109d2565b836109ec565b6107708282610df0565b5050565b60006005600084815260200190815260200160002060000160008373ffffffffffffffffffffffffffffffffffffffff1673ffffffffffffffffffffffffffffffffffffffff16815260200190815260200160002060009054906101000a900460ff16905092915050565b6060600480546107ee906119a9565b80601f016020809104026020016040519081016040528092919081815260200182805461081a906119a9565b80156108675780601f1061083c57610100808354040283529160200191610867565b820191906000526020600020905b81548152906001019060200180831161084a57829003601f168201915b5050505050905090565b6000801b81565b6000806108836109d2565b9050610890818585610a81565b600191505092915050565b7f9f2df0fed2c77648de5860a4cc508cd0818c85b8b8a1ab4ceeef8d981c8956a681565b6108c88261059c565b6108d181610b75565b6108db8383610c7b565b50505050565b6000600160008473ffffffffffffffffffffffffffffffffffffffff1673ffffffffffffffffffffffffffffffffffffffff16815260200190815260200160002060008373ffffffffffffffffffffffffffffffffffffffff1673ffffffffffffffffffffffffffffffffffffffff16815260200190815260200160002054905092915050565b60007f01ffc9a7000000000000000000000000000000000000000000000000000000007bffffffffffffffffffffffffffffffffffffffffffffffffffffffff1916827bffffffffffffffffffffffffffffffffffffffffffffffffffffffff1916149050919050565b600033905090565b6109e78383836001610e72565b505050565b60006109f884846108e1565b90507fffffffffffffffffffffffffffffffffffffffffffffffffffffffffffffffff811015610a7b5781811015610a6b578281836040517ffb8f41b2000000000000000000000000000000000000000000000000000000008152600401610a6293929190611a19565b60405180910390fd5b610a7a84848484036000610e72565b5b50505050565b600073ffffffffffffffffffffffffffffffffffffffff168373ffffffffffffffffffffffffffffffffffffffff1603610af35760006040517f96c6fd1e000000000000000000000000000000000000000000000000000000008152600401610aea9190611a50565b60405180910390fd5b600073ffffffffffffffffffffffffffffffffffffffff168273ffffffffffffffffffffffffffffffffffffffff1603610b655760006040517fec442f05000000000000000000000000000000000000000000000000000000008152600401610b5c9190611a50565b60405180910390fd5b610b70838383611049565b505050565b610b8681610b816109d2565b611103565b50565b6000610b958383610774565b610c705760016005600085815260200190815260200160002060000160008473ffffffffffffffffffffffffffffffffffffffff1673ffffffffffffffffffffffffffffffffffffffff16815260200190815260200160002060006101000a81548160ff021916908315150217905550610c0d6109d2565b73ffffffffffffffffffffffffffffffffffffffff168273ffffffffffffffffffffffffffffffffffffffff16847f2f8788117e7eff1d82e926ec794901d17c78024a50270940304540a733656f0d60405160405180910390a460019050610c75565b600090505b92915050565b6000610c878383610774565b15610d635760006005600085815260200190815260200160002060000160008473ffffffffffffffffffffffffffffffffffffffff1673ffffffffffffffffffffffffffffffffffffffff16815260200190815260200160002060006101000a81548160ff021916908315150217905550610d006109d2565b73ffffffffffffffffffffffffffffffffffffffff168273ffffffffffffffffffffffffffffffffffffffff16847ff6391f5c32d9c69d2a47ea670b442974b53935d1edc7fd64eb21e047a839171b60405160405180910390a460019050610d68565b600090505b92915050565b600073ffffffffffffffffffffffffffffffffffffffff168273ffffffffffffffffffffffffffffffffffffffff1603610de05760006040517fec442f05000000000000000000000000000000000000000000000000000000008152600401610dd79190611a50565b60405180910390fd5b610dec60008383611049565b5050565b600073ffffffffffffffffffffffffffffffffffffffff168273ffffffffffffffffffffffffffffffffffffffff1603610e625760006040517f96c6fd1e000000000000000000000000000000000000000000000000000000008152600401610e599190611a50565b60405180910390fd5b610e6e82600083611049565b5050565b600073ffffffffffffffffffffffffffffffffffffffff168473ffffffffffffffffffffffffffffffffffffffff1603610ee45760006040517fe602df05000000000000000000000000000000000000000000000000000000008152600401610edb9190611a50565b60405180910390fd5b600073ffffffffffffffffffffffffffffffffffffffff168373ffffffffffffffffffffffffffffffffffffffff1603610f565760006040517f94280d62000000000000000000000000000000000000000000000000000000008152600401610f4d9190611a50565b60405180910390fd5b81600160008673ffffffffffffffffffffffffffffffffffffffff1673ffffffffffffffffffffffffffffffffffffffff16815260200190815260200160002060008573ffffffffffffffffffffffffffffffffffffffff1673ffffffffffffffffffffffffffffffffffffffff168152602001908152602001600020819055508015611043578273ffffffffffffffffffffffffffffffffffffffff168473ffffffffffffffffffffffffffffffffffffffff167f8c5be1e5ebec7d5bd14f71427d1e84f3dd0314c0f7b2291e5b200ac8c7c3b9258460405161103a91906115dd565b60405180910390a35b50505050565b600073ffffffffffffffffffffffffffffffffffffffff168373ffffffffffffffffffffffffffffffffffffffff16141580156110b35750600073ffffffffffffffffffffffffffffffffffffffff168273ffffffffffffffffffffffffffffffffffffffff1614155b156110f3576040517f08c379a00000000000000000000000000000000000000000000000000000000081526004016110ea90611add565b60405180910390fd5b6110fe838383611154565b505050565b61110d8282610774565b6111505780826040517fe2517d3f000000000000000000000000000000000000000000000000000000008152600401611147929190611afd565b60405180910390fd5b5050565b600073ffffffffffffffffffffffffffffffffffffffff168373ffffffffffffffffffffffffffffffffffffffff16036111a657806002600082825461119a9190611b55565b92505081905550611279565b60008060008573ffffffffffffffffffffffffffffffffffffffff1673ffffffffffffffffffffffffffffffffffffffff16815260200190815260200160002054905081811015611232578381836040517fe450d38c00000000000000000000000000000000000000000000000000000000815260040161122993929190611a19565b60405180910390fd5b8181036000808673ffffffffffffffffffffffffffffffffffffffff1673ffffffffffffffffffffffffffffffffffffffff16815260200190815260200160002081905550505b600073ffffffffffffffffffffffffffffffffffffffff168273ffffffffffffffffffffffffffffffffffffffff16036112c2578060026000828254039250508190555061130f565b806000808473ffffffffffffffffffffffffffffffffffffffff1673ffffffffffffffffffffffffffffffffffffffff168152602001908152602001600020600082825401925050819055505b8173ffffffffffffffffffffffffffffffffffffffff168373ffffffffffffffffffffffffffffffffffffffff167fddf252ad1be2c89b69c2b068fc378daa952ba7f163c4a11628f55a4df523b3ef8360405161136c91906115dd565b60405180910390a3505050565b6000604051905090565b600080fd5b600080fd5b60007fffffffff0000000000000000000000000000000000000000000000000000000082169050919050565b6113c28161138d565b81146113cd57600080fd5b50565b6000813590506113df816113b9565b92915050565b6000602082840312156113fb576113fa611383565b5b6000611409848285016113d0565b91505092915050565b60008115159050919050565b61142781611412565b82525050565b6000602082019050611442600083018461141e565b92915050565b600081519050919050565b600082825260208201905092915050565b60005b83811015611482578082015181840152602081019050611467565b60008484015250505050565b6000601f19601f8301169050919050565b60006114aa82611448565b6114b48185611453565b93506114c4818560208601611464565b6114cd8161148e565b840191505092915050565b600060208201905081810360008301526114f2818461149f565b905092915050565b600073ffffffffffffffffffffffffffffffffffffffff82169050919050565b6000611525826114fa565b9050919050565b6115358161151a565b811461154057600080fd5b50565b6000813590506115528161152c565b92915050565b6000819050919050565b61156b81611558565b811461157657600080fd5b50565b60008135905061158881611562565b92915050565b600080604083850312156115a5576115a4611383565b5b60006115b385828601611543565b92505060206115c485828601611579565b9150509250929050565b6115d781611558565b82525050565b60006020820190506115f260008301846115ce565b92915050565b60008060006060848603121561161157611610611383565b5b600061161f86828701611543565b935050602061163086828701611543565b925050604061164186828701611579565b9150509250925092565b6000819050919050565b61165e8161164b565b811461166957600080fd5b50565b60008135905061167b81611655565b92915050565b60006020828403121561169757611696611383565b5b60006116a58482850161166c565b91505092915050565b6116b78161164b565b82525050565b60006020820190506116d260008301846116ae565b92915050565b600080604083850312156116ef576116ee611383565b5b60006116fd8582860161166c565b925050602061170e85828601611543565b9150509250929050565b600060ff82169050919050565b61172e81611718565b82525050565b60006020820190506117496000830184611725565b92915050565b60006020828403121561176557611764611383565b5b600061177384828501611579565b91505092915050565b600080fd5b600080fd5b7f4e487b7100000000000000000000000000000000000000000000000000000000600052604160045260246000fd5b6117be8261148e565b810181811067ffffffffffffffff821117156117dd576117dc611786565b5b80604052505050565b60006117f0611379565b90506117fc82826117b5565b919050565b600067ffffffffffffffff82111561181c5761181b611786565b5b6118258261148e565b9050602081019050919050565b82818337600083830152505050565b600061185461184f84611801565b6117e6565b9050828152602081018484840111156118705761186f611781565b5b61187b848285611832565b509392505050565b600082601f8301126118985761189761177c565b5b81356118a8848260208601611841565b91505092915050565b600080604083850312156118c8576118c7611383565b5b60006118d685828601611579565b925050602083013567ffffffffffffffff8111156118f7576118f6611388565b5b61190385828601611883565b9150509250929050565b60006020828403121561192357611922611383565b5b600061193184828501611543565b91505092915050565b6000806040838503121561195157611950611383565b5b600061195f85828601611543565b925050602061197085828601611543565b9150509250929050565b7f4e487b7100000000000000000000000000000000000000000000000000000000600052602260045260246000fd5b600060028204905060018216806119c157607f821691505b6020821081036119d4576119d361197a565b5b50919050565b60006040820190506119ef60008301856115ce565b8181036020830152611a01818461149f565b90509392505050565b611a138161151a565b82525050565b6000606082019050611a2e6000830186611a0a565b611a3b60208301856115ce565b611a4860408301846115ce565b949350505050565b6000602082019050611a656000830184611a0a565b92915050565b7f436172626f6e437265646974546f6b656e3a205472616e73666572732061726560008201527f2064697361626c656420696e2042657461000000000000000000000000000000602082015250565b6000611ac7603183611453565b9150611ad282611a6b565b604082019050919050565b60006020820190508181036000830152611af681611aba565b9050919050565b6000604082019050611b126000830185611a0a565b611b1f60208301846116ae565b9392505050565b7f4e487b7100000000000000000000000000000000000000000000000000000000600052601160045260246000fd5b6000611b6082611558565b9150611b6b83611558565b9250828201905080821115611b8357611b82611b26565b5b9291505056fea264697066735822122037a10b498629791558c1b63460601e9f8e0838f662ee0f18bf3fdba5c706965764736f6c63430008140033",
  "linkReferences": {},
  "deployedLinkReferences": {}
}