{
  "_format": "hh-sol-artifact-1",
  "contractName": "MRVRegistry",
  "sourceName": "contracts/MRVRegistry.sol",
  "abi": [
    {
      "inputs": [
        {
          "internalType": "address",
          "name": "_creditToken",
          "type": "address"
        },
        {
          "internalType": "address",
          "name": "_projectNFT",
          "type": "address"
        }
      ],
      "stateMutability": "nonpayable",
      "type": "constructor"
    },
    {
      "inputs": [],
      "name": "AccessControlBadConfirmation",
      "type": "error"
    },
    {
      "inputs": [
        {
          "internalType": "address",
          "name": "account",
          "type": "address"
        },
        {
          "internalType": "bytes32",
          "name": "neededRole",
          "type": "bytes32"
        }
      ],
      "name": "AccessControlUnauthorizedAccount",
      "type": "error"
    },
    {
      "anonymous": false,
      "inputs": [
        {
          "indexed": true,
          "internalType": "uint256",
          "name": "measurementId",
          "type": "uint256"
        },
        {
          "indexed": false,
          "internalType": "uint256",
          "name": "amount",
          "type": "uint256"
        }
      ],
      "name": "CreditsIssued",
      "type": "event"
    },
    {
      "anonymous": false,
      "inputs": [
        {
          "indexed": true,
          "internalType": "uint256",
          "name": "measurementId",
          "type": "uint256"
        },
        {
          "indexed": false,
          "internalType": "uint256",
          "name": "amount",
          "type": "uint256"
        },
        {
          "indexed": false,
          "internalType": "string",
          "name": "reason",
          "type": "string"
        }
      ],
      "name": "CreditsRetired",
      "type": "event"
    },
    {
      "anonymous": false,
      "inputs": [
        {
          "indexed": true,
          "internalType": "uint256",
          "name": "id",
          "type": "uint256"
        },
        {
          "indexed": true,
          "internalType": "uint256",
          "name": "projectId",
          "type": "uint256"
        },
        {
          "indexed": false,
          "internalType": "uint256",
          "name": "co2Captured",
          "type": "uint256"
        }
      ],
      "name": "MeasurementAdded",
      "type": "event"
    },
    {
      "anonymous": false,
      "inputs": [
        {
          "indexed": true,
          "internalType": "uint256",
          "name": "id",
          "type": "uint256"
        },
        {
          "indexed": false,
          "internalType": "address",
          "name": "verifier",
          "type": "address"
        }
      ],
      "name": "MeasurementVerified",
      "type": "event"
    },
    {
      "anonymous": false,
      "inputs": [
        {
          "indexed": true,
          "internalType": "bytes32",
          "name": "role",
          "type": "bytes32"
        },
        {
          "indexed": true,
          "internalType": "bytes32",
          "name": "previousAdminRole",
          "type": "bytes32"
        },
        {
          "indexed": true,
          "internalType": "bytes32",
          "name": "newAdminRole",
          "type": "bytes32"
        }
      ],
      "name": "RoleAdminChanged",
      "type": "event"
    },
    {
      "anonymous": false,
      "inputs": [
        {
          "indexed": true,
          "internalType": "bytes32",
          "name": "role",
          "type": "bytes32"
        },
        {
          "indexed": true,
          "internalType": "address",
          "name": "account",
          "type": "address"
        },
        {
          "indexed": true,
          "internalType": "address",
          "name": "sender",
          "type": "address"
        }
      ],
      "name": "RoleGranted",
      "type": "event"
    },
    {
      "anonymous": false,
      "inputs": [
        {
          "indexed": true,
          "internalType": "bytes32",
          "name": "role",
          "type": "bytes32"
        },
        {
          "indexed": true,
          "internalType": "address",
          "name": "account",
          "type": "address"
        },
        {
          "indexed": true,
          "internalType": "address",
          "name": "sender",
          "type": "address"
        }
      ],
      "name": "RoleRevoked",
      "type": "event"
    },
    {
      "inputs": [],
      "name": "DEFAULT_ADMIN_ROLE",
      "outputs": [
        {
          "internalType": "bytes32",
          "name": "",
          "type": "bytes32"
        }
      ],
      "stateMutability": "view",
      "type": "function"
    },
    {
      "inputs": [],
      "name": "VERIFIER_ROLE",
      "outputs": [
        {
          "internalType": "bytes32",
          "name": "",
          "type": "bytes32"
        }
      ],
      "stateMutability": "view",
      "type": "function"
    },
    {
      "inputs": [
        {
          "internalType": "uint256",
          "name": "projectId",
          "type": "uint256"
        },
        {
          "internalType": "uint256",
          "name": "biomassAmount",
          "type": "uint256"
        },
        {
          "internalType": "uint256",
          "name": "co2Captured",
          "type": "uint256"
        },
        {
          "internalType": "string",
          "name": "dataHash",
          "type": "string"
        }
      ],
      "name": "addMeasurement",
      "outputs": [],
      "stateMutability": "nonpayable",
      "type": "function"
    },
    {
      "inputs": [],
      "name": "creditToken",
      "outputs": [
        {
          "internalType": "contract CarbonCreditToken",
          "name": "",
          "type": "address"
        }
      ],
      "stateMutability": "view",
      "type": "function"
    },
    {
      "inputs": [
        {
          "internalType": "uint256",
          "name": "measurementId",
          "type": "uint256"
        }
      ],
      "name": "getMeasurement",
      "outputs": [
        {
          "components": [
            {
              "internalType": "uint256",
              "name": "id",
              "type": "uint256"
            },
            {
              "internalType": "uint256",
              "name": "projectId",
              "type": "uint256"
            },
            {
              "internalType": "uint256",
              "name": "timestamp",
              "type": "uint256"
            },
            {
              "internalType": "uint256",
              "name": "biomassAmount",
              "type": "uint256"
            },
            {
              "internalType": "uint256",
              "name": "co2Captured",
              "type": "uint256"
            },
            {
              "internalType": "string",
              "name": "dataHash",
              "type": "string"
            },
            {
              "internalType": "enum MRVRegistry.Status",
              "name": "status",
              "type": "uint8"
            }
          ],
          "internalType": "struct MRVRegistry.Measurement",
          "name": "",
          "type": "tuple"
        }
      ],
      "stateMutability": "view",
      "type": "function"
    },
    {
      "inputs": [
        {
          "internalType": "uint256",
          "name": "projectId",
          "type": "uint256"
        }
      ],
      "name": "getProjectMeasurements",
      "outputs": [
        {
          "components": [
            {
              "internalType": "uint256",
              "name": "id",
              "type": "uint256"
            },
            {
              "internalType": "uint256",
              "name": "projectId",
              "type": "uint256"
            },
            {
              "internalType": "uint256",
              "name": "timestamp",
              "type": "uint256"
            },
            {
              "internalType": "uint256",
              "name": "biomassAmount",
              "type": "uint256"
            },
            {
              "internalType": "uint256",
              "name": "co2Captured",
              "type": "uint256"
            },
            {
              "internalType": "string",
              "name": "dataHash",
              "type": "string"
            },
            {
              "internalType": "enum MRVRegistry.Status",
              "name": "status",
              "type": "uint8"
            }
          ],
          "internalType": "struct MRVRegistry.Measurement[]",
          "name": "",
          "type": "tuple[]"
        }
      ],
      "stateMutability": "view",
      "type": "function"
    },
    {
      "inputs": [
        {
          "internalType": "bytes32",
          "name": "role",
          "type": "bytes32"
        }
      ],
      "name": "getRoleAdmin",
      "outputs": [
        {
          "internalType": "bytes32",
          "name": "",
          "type": "bytes32"
        }
      ],
      "stateMutability": "view",
      "type": "function"
    },
    {
      "inputs": [],
      "name": "getTotalMeasurements",
      "outputs": [
        {
          "internalType": "uint256",
          "name": "",
          "type": "uint256"
        }
      ],
      "stateMutability": "view",
      "type": "function"
    },
    {
      "inputs": [
        {
          "internalType": "bytes32",
          "name": "role",
          "type": "bytes32"
        },
        {
          "internalType": "address",
          "name": "account",
          "type": "address"
        }
      ],
      "name": "grantRole",
      "outputs": [],
      "stateMutability": "nonpayable",
      "type": "function"
    },
    {
      "inputs": [
        {
          "internalType": "bytes32",
          "name": "role",
          "type": "bytes32"
        },
        {
          "internalType": "address",
          "name": "account",
          "type": "address"
        }
      ],
      "name": "hasRole",
      "outputs": [
        {
          "internalType": "bool",
          "name": "",
          "type": "bool"
        }
      ],
      "stateMutability": "view",
      "type": "function"
    },
    {
      "inputs": [
        {
          "internalType": "uint256",
          "name": "measurementId",
          "type": "uint256"
        }
      ],
      "name": "issueCredits",
      "outputs": [],
      "stateMutability": "nonpayable",
      "type": "function"
    },
    {
      "inputs": [
        {
          "internalType": "uint256",
          "name": "",
          "type": "uint256"
        }
      ],
      "name": "measurements",
      "outputs": [
        {
          "internalType": "uint256",
          "name": "id",
          "type": "uint256"
        },
        {
          "internalType": "uint256",
          "name": "projectId",
          "type": "uint256"
        },
        {
          "internalType": "uint256",
          "name": "timestamp",
          "type": "uint256"
        },
        {
          "internalType": "uint256",
          "name": "biomassAmount",
          "type": "uint256"
        },
        {
          "internalType": "uint256",
          "name": "co2Captured",
          "type": "uint256"
        },
        {
          "internalType": "string",
          "name": "dataHash",
          "type": "string"
        },
        {
          "internalType": "enum MRVRegistry.Status",
          "name": "status",
          "type": "uint8"
        }
      ],
      "stateMutability": "view",
      "type": "function"
    },
    {
      "inputs": [
        {
          "internalType": "uint256",
          "name": "",
          "type": "uint256"
        },
        {
          "internalType": "uint256",
          "name": "",
          "type": "uint256"
        }
      ],
      "name": "projectMeasurements",
      "outputs": [
        {
          "internalType": "uint256",
          "name": "",
          "type": "uint256"
        }
      ],
      "stateMutability": "view",
      "type": "function"
    },
    {
      "inputs": [],
      "name": "projectNFT",
      "outputs": [
        {
          "internalType": "contract AlgaeProjectNFT",
          "name": "",
          "type": "address"
        }
      ],
      "stateMutability": "view",
      "type": "function"
    },
    {
      "inputs": [
        {
          "internalType": "bytes32",
          "name": "role",
          "type": "bytes32"
        },
        {
          "internalType": "address",
          "name": "callerConfirmation",
          "type": "address"
        }
      ],
      "name": "renounceRole",
      "outputs": [],
      "stateMutability": "nonpayable",
      "type": "function"
    },
    {
      "inputs": [
        {
          "internalType": "uint256",
          "name": "measurementId",
          "type": "uint256"
        },
        {
          "internalType": "string",
          "name": "reason",
          "type": "string"
        },
        {
          "internalType": "string",
          "name": "report",
          "type": "string"
        }
      ],
      "name": "retireCredits",
      "outputs": [],
      "stateMutability": "nonpayable",
      "type": "function"
    },
    {
      "inputs": [
        {
          "internalType": "bytes32",
          "name": "role",
          "type": "bytes32"
        },
        {
          "internalType": "address",
          "name": "account",
          "type": "address"
        }
      ],
      "name": "revokeRole",
      "outputs": [],
      "stateMutability": "nonpayable",
      "type": "function"
    },
    {
      "inputs": [
        {
          "internalType": "bytes4",
          "name": "interfaceId",
          "type": "bytes4"
        }
      ],
      "name": "supportsInterface",
      "outputs": [
        {
          "internalType": "bool",
          "name": "",
          "type": "bool"
        }
      ],
      "stateMutability": "view",
      "type": "function"
    },
    {
      "inputs": [
        {
          "internalType": "uint256",
          "name": "measurementId",
          "type": "uint256"
        },
        {
          "internalType": "bool",
          "name": "approve",
          "type": "bool"
        }
      ],
      "name": "verifyMeasurement",
      "outputs": [],
      "stateMutability": "nonpayable",
      "type": "function"
    }
  ],
  "bytecode": "0x60806040523480156200001157600080fd5b5060405162002b6c38038062002b6c8339818101604052810190620000379190620002e9565b81600160006101000a81548173ffffffffffffffffffffffffffffffffffffffff021916908373ffffffffffffffffffffffffffffffffffffffff16021790555080600260006101000a81548173ffffffffffffffffffffffffffffffffffffffff021916908373ffffffffffffffffffffffffffffffffffffffff160217905550620000ce6000801b336200010a60201b60201c565b50620001017f0ce23c3e399818cfee81a7ab0880f714e53d7672b08df0fa62f2843416e1ea09336200010a60201b60201c565b50505062000330565b60006200011e83836200020d60201b60201c565b6200020257600160008085815260200190815260200160002060000160008473ffffffffffffffffffffffffffffffffffffffff1673ffffffffffffffffffffffffffffffffffffffff16815260200190815260200160002060006101000a81548160ff0219169083151502179055506200019e6200027760201b60201c565b73ffffffffffffffffffffffffffffffffffffffff168273ffffffffffffffffffffffffffffffffffffffff16847f2f8788117e7eff1d82e926ec794901d17c78024a50270940304540a733656f0d60405160405180910390a46001905062000207565b600090505b92915050565b600080600084815260200190815260200160002060000160008373ffffffffffffffffffffffffffffffffffffffff1673ffffffffffffffffffffffffffffffffffffffff16815260200190815260200160002060009054906101000a900460ff16905092915050565b600033905090565b600080fd5b600073ffffffffffffffffffffffffffffffffffffffff82169050919050565b6000620002b18262000284565b9050919050565b620002c381620002a4565b8114620002cf57600080fd5b50565b600081519050620002e381620002b8565b92915050565b600080604083850312156200030357620003026200027f565b5b60006200031385828601620002d2565b92505060206200032685828601620002d2565b9150509250929050565b61282c80620003406000396000f3fe608060405234801561001057600080fd5b50600436106101215760003560e01c80637791a772116100ad578063a217fddf11610071578063a217fddf14610344578063a2fd691714610362578063d547741f14610380578063e7705db61461039c578063ecab818c146103ba57610121565b80637791a77214610260578063899e5d85146102965780638d56bd13146102b457806391d14854146102e45780639a2f4fa81461031457610121565b806336568abe116100f457806336568abe146101be57806337c79e66146101da5780634542fee41461020a578063692c28521461022857806371e020a91461024457610121565b806301ffc9a714610126578063248a9ca3146101565780632f2ff15d14610186578063313c18c8146101a2575b600080fd5b610140600480360381019061013b9190611701565b6103d6565b60405161014d9190611749565b60405180910390f35b610170600480360381019061016b919061179a565b610450565b60405161017d91906117d6565b60405180910390f35b6101a0600480360381019061019b919061184f565b61046f565b005b6101bc60048036038101906101b79190611a0b565b610491565b005b6101d860048036038101906101d3919061184f565b610704565b005b6101f460048036038101906101ef9190611a8e565b61077f565b6040516102019190611c5c565b60405180910390f35b6102126108ab565b60405161021f9190611c8d565b60405180910390f35b610242600480360381019061023d9190611cd4565b6108b5565b005b61025e60048036038101906102599190611d14565b610a12565b005b61027a60048036038101906102759190611a8e565b610ccd565b60405161028d9796959493929190611df8565b60405180910390f35b61029e610da4565b6040516102ab9190611ecd565b60405180910390f35b6102ce60048036038101906102c99190611a8e565b610dca565b6040516102db9190612046565b60405180910390f35b6102fe60048036038101906102f9919061184f565b61100a565b60405161030b9190611749565b60405180910390f35b61032e60048036038101906103299190612068565b611074565b60405161033b9190611c8d565b60405180910390f35b61034c6110a5565b60405161035991906117d6565b60405180910390f35b61036a6110ac565b60405161037791906120c9565b60405180910390f35b61039a6004803603810190610395919061184f565b6110d2565b005b6103a46110f4565b6040516103b191906117d6565b60405180910390f35b6103d460048036038101906103cf9190611a8e565b611118565b005b60007f7965db0b000000000000000000000000000000000000000000000000000000007bffffffffffffffffffffffffffffffffffffffffffffffffffffffff1916827bffffffffffffffffffffffffffffffffffffffffffffffffffffffff1916148061044957506104488261138c565b5b9050919050565b6000806000838152602001908152602001600020600101549050919050565b61047882610450565b610481816113f6565b61048b838361140a565b50505050565b600073ffffffffffffffffffffffffffffffffffffffff16600260009054906101000a900473ffffffffffffffffffffffffffffffffffffffff1673ffffffffffffffffffffffffffffffffffffffff16636352211e866040518263ffffffff1660e01b81526004016105049190611c8d565b602060405180830381865afa158015610521573d6000803e3d6000fd5b505050506040513d601f19601f8201168201806040525081019061054591906120f9565b73ffffffffffffffffffffffffffffffffffffffff160361059b576040517f08c379a000000000000000000000000000000000000000000000000000000000815260040161059290612172565b60405180910390fd5b6000600360008154809291906105b0906121c1565b9190505590506040518060e00160405280828152602001868152602001428152602001858152602001848152602001838152602001600060048111156105f9576105f8611b49565b5b81525060046000838152602001908152602001600020600082015181600001556020820151816001015560408201518160020155606082015181600301556080820151816004015560a0820151816005019081610656919061240b565b5060c08201518160060160006101000a81548160ff0219169083600481111561068257610681611b49565b5b02179055509050506005600086815260200190815260200160002081908060018154018082558091505060019003906000526020600020016000909190919091505584817fefcb3fe20e6ef58abf3154b767c5e21f87b4eebffb7442c561890a7eca297d61856040516106f59190611c8d565b60405180910390a35050505050565b61070c6114fb565b73ffffffffffffffffffffffffffffffffffffffff168173ffffffffffffffffffffffffffffffffffffffff1614610770576040517f6697b23200000000000000000000000000000000000000000000000000000000815260040160405180910390fd5b61077a8282611503565b505050565b610787611646565b600460008381526020019081526020016000206040518060e001604052908160008201548152602001600182015481526020016002820154815260200160038201548152602001600482015481526020016005820180546107e790612238565b80601f016020809104026020016040519081016040528092919081815260200182805461081390612238565b80156108605780601f1061083557610100808354040283529160200191610860565b820191906000526020600020905b81548152906001019060200180831161084357829003601f168201915b505050505081526020016006820160009054906101000a900460ff16600481111561088e5761088d611b49565b5b60048111156108a05761089f611b49565b5b815250509050919050565b6000600354905090565b7f0ce23c3e399818cfee81a7ab0880f714e53d7672b08df0fa62f2843416e1ea096108df816113f6565b60006004600085815260200190815260200160002090506000600481111561090a57610909611b49565b5b8160060160009054906101000a900460ff16600481111561092e5761092d611b49565b5b1461096e576040517f08c379a000000000000000000000000000000000000000000000000000000000815260040161096590612529565b60405180910390fd5b82156109de5760018160060160006101000a81548160ff0219169083600481111561099c5761099b611b49565b5b0217905550837f531dc9e8c1657349d3e68fbc8959d4a7de48c43d5e4b9a217e8f0dbae103ae42336040516109d19190612558565b60405180910390a2610a0c565b60028160060160006101000a81548160ff02191690836004811115610a0657610a05611b49565b5b02179055505b50505050565b600060046000858152602001908152602001600020905060036004811115610a3d57610a3c611b49565b5b8160060160009054906101000a900460ff166004811115610a6157610a60611b49565b5b14610aa1576040517f08c379a0000000000000000000000000000000000000000000000000000000008152600401610a98906125e5565b60405180910390fd5b6000600260009054906101000a900473ffffffffffffffffffffffffffffffffffffffff1673ffffffffffffffffffffffffffffffffffffffff16636352211e83600101546040518263ffffffff1660e01b8152600401610b029190611c8d565b602060405180830381865afa158015610b1f573d6000803e3d6000fd5b505050506040513d601f19601f82011682018060405250810190610b4391906120f9565b90508073ffffffffffffffffffffffffffffffffffffffff163373ffffffffffffffffffffffffffffffffffffffff1614610bb3576040517f08c379a0000000000000000000000000000000000000000000000000000000008152600401610baa90612677565b60405180910390fd5b6000670de0b6b3a76400008360040154610bcd9190612697565b9050600160009054906101000a900473ffffffffffffffffffffffffffffffffffffffff1673ffffffffffffffffffffffffffffffffffffffff166379cc679033836040518363ffffffff1660e01b8152600401610c2c9291906126d9565b600060405180830381600087803b158015610c4657600080fd5b505af1158015610c5a573d6000803e3d6000fd5b5050505060048360060160006101000a81548160ff02191690836004811115610c8657610c85611b49565b5b0217905550857f095369f7763757ed8ebf40133e4fe17937a9b367c3120d62f0f58c3a3c102a8c8287604051610cbd929190612702565b60405180910390a2505050505050565b6004602052806000526040600020600091509050806000015490806001015490806002015490806003015490806004015490806005018054610d0e90612238565b80601f0160208091040260200160405190810160405280929190818152602001828054610d3a90612238565b8015610d875780601f10610d5c57610100808354040283529160200191610d87565b820191906000526020600020905b815481529060010190602001808311610d6a57829003601f168201915b5050505050908060060160009054906101000a900460ff16905087565b600160009054906101000a900473ffffffffffffffffffffffffffffffffffffffff1681565b6060600060056000848152602001908152602001600020805480602002602001604051908101604052809291908181526020018280548015610e2b57602002820191906000526020600020905b815481526020019060010190808311610e17575b505050505090506000815167ffffffffffffffff811115610e4f57610e4e6118e0565b5b604051908082528060200260200182016040528015610e8857816020015b610e75611646565b815260200190600190039081610e6d5790505b50905060005b8251811015610fff5760046000848381518110610eae57610ead612732565b5b602002602001015181526020019081526020016000206040518060e00160405290816000820154815260200160018201548152602001600282015481526020016003820154815260200160048201548152602001600582018054610f1190612238565b80601f0160208091040260200160405190810160405280929190818152602001828054610f3d90612238565b8015610f8a5780601f10610f5f57610100808354040283529160200191610f8a565b820191906000526020600020905b815481529060010190602001808311610f6d57829003601f168201915b505050505081526020016006820160009054906101000a900460ff166004811115610fb857610fb7611b49565b5b6004811115610fca57610fc9611b49565b5b81525050828281518110610fe157610fe0612732565b5b60200260200101819052508080610ff7906121c1565b915050610e8e565b508092505050919050565b600080600084815260200190815260200160002060000160008373ffffffffffffffffffffffffffffffffffffffff1673ffffffffffffffffffffffffffffffffffffffff16815260200190815260200160002060009054906101000a900460ff16905092915050565b6005602052816000526040600020818154811061109057600080fd5b90600052602060002001600091509150505481565b6000801b81565b600260009054906101000a900473ffffffffffffffffffffffffffffffffffffffff1681565b6110db82610450565b6110e4816113f6565b6110ee8383611503565b50505050565b7f0ce23c3e399818cfee81a7ab0880f714e53d7672b08df0fa62f2843416e1ea0981565b7f0ce23c3e399818cfee81a7ab0880f714e53d7672b08df0fa62f2843416e1ea09611142816113f6565b60006004600084815260200190815260200160002090506001600481111561116d5761116c611b49565b5b8160060160009054906101000a900460ff16600481111561119157611190611b49565b5b146111d1576040517f08c379a00000000000000000000000000000000000000000000000000000000081526004016111c8906127ad565b60405180910390fd5b60038160060160006101000a81548160ff021916908360048111156111f9576111f8611b49565b5b02179055506000670de0b6b3a764000082600401546112189190612697565b90506000600260009054906101000a900473ffffffffffffffffffffffffffffffffffffffff1673ffffffffffffffffffffffffffffffffffffffff16636352211e84600101546040518263ffffffff1660e01b815260040161127b9190611c8d565b602060405180830381865afa158015611298573d6000803e3d6000fd5b505050506040513d601f19601f820116820180604052508101906112bc91906120f9565b9050600160009054906101000a900473ffffffffffffffffffffffffffffffffffffffff1673ffffffffffffffffffffffffffffffffffffffff166340c10f1982846040518363ffffffff1660e01b815260040161131b9291906126d9565b600060405180830381600087803b15801561133557600080fd5b505af1158015611349573d6000803e3d6000fd5b50505050847f3e7363ad1c012fb23364530943587c40870d641e117d3e63614f6761e58f5e138360405161137d9190611c8d565b60405180910390a25050505050565b60007f01ffc9a7000000000000000000000000000000000000000000000000000000007bffffffffffffffffffffffffffffffffffffffffffffffffffffffff1916827bffffffffffffffffffffffffffffffffffffffffffffffffffffffff1916149050919050565b611407816114026114fb565b6115f5565b50565b6000611416838361100a565b6114f057600160008085815260200190815260200160002060000160008473ffffffffffffffffffffffffffffffffffffffff1673ffffffffffffffffffffffffffffffffffffffff16815260200190815260200160002060006101000a81548160ff02191690831515021790555061148d6114fb565b73ffffffffffffffffffffffffffffffffffffffff168273ffffffffffffffffffffffffffffffffffffffff16847f2f8788117e7eff1d82e926ec794901d17c78024a50270940304540a733656f0d60405160405180910390a4600190506114f5565b600090505b92915050565b600033905090565b600061150f838361100a565b156115ea57600080600085815260200190815260200160002060000160008473ffffffffffffffffffffffffffffffffffffffff1673ffffffffffffffffffffffffffffffffffffffff16815260200190815260200160002060006101000a81548160ff0219169083151502179055506115876114fb565b73ffffffffffffffffffffffffffffffffffffffff168273ffffffffffffffffffffffffffffffffffffffff16847ff6391f5c32d9c69d2a47ea670b442974b53935d1edc7fd64eb21e047a839171b60405160405180910390a4600190506115ef565b600090505b92915050565b6115ff828261100a565b6116425780826040517fe2517d3f0000000000000000000000000000000000000000000000000000000081526004016116399291906127cd565b60405180910390fd5b5050565b6040518060e001604052806000815260200160008152602001600081526020016000815260200160008152602001606081526020016000600481111561168f5761168e611b49565b5b81525090565b6000604051905090565b600080fd5b600080fd5b60007fffffffff0000000000000000000000000000000000000000000000000000000082169050919050565b6116de816116a9565b81146116e957600080fd5b50565b6000813590506116fb816116d5565b92915050565b6000602082840312156117175761171661169f565b5b6000611725848285016116ec565b91505092915050565b60008115159050919050565b6117438161172e565b82525050565b600060208201905061175e600083018461173a565b92915050565b6000819050919050565b61177781611764565b811461178257600080fd5b50565b6000813590506117948161176e565b92915050565b6000602082840312156117b0576117af61169f565b5b60006117be84828501611785565b91505092915050565b6117d081611764565b82525050565b60006020820190506117eb60008301846117c7565b92915050565b600073ffffffffffffffffffffffffffffffffffffffff82169050919050565b600061181c826117f1565b9050919050565b61182c81611811565b811461183757600080fd5b50565b60008135905061184981611823565b92915050565b600080604083850312156118665761186561169f565b5b600061187485828601611785565b92505060206118858582860161183a565b9150509250929050565b6000819050919050565b6118a28161188f565b81146118ad57600080fd5b50565b6000813590506118bf81611899565b92915050565b600080fd5b600080fd5b6000601f19601f8301169050919050565b7f4e487b7100000000000000000000000000000000000000000000000000000000600052604160045260246000fd5b611918826118cf565b810181811067ffffffffffffffff82111715611937576119366118e0565b5b80604052505050565b600061194a611695565b9050611956828261190f565b919050565b600067ffffffffffffffff821115611976576119756118e0565b5b61197f826118cf565b9050602081019050919050565b82818337600083830152505050565b60006119ae6119a98461195b565b611940565b9050828152602081018484840111156119ca576119c96118ca565b5b6119d584828561198c565b509392505050565b600082601f8301126119f2576119f16118c5565b5b8135611a0284826020860161199b565b91505092915050565b60008060008060808587031215611a2557611a2461169f565b5b6000611a33878288016118b0565b9450506020611a44878288016118b0565b9350506040611a55878288016118b0565b925050606085013567ffffffffffffffff811115611a7657611a756116a4565b5b611a82878288016119dd565b91505092959194509250565b600060208284031215611aa457611aa361169f565b5b6000611ab2848285016118b0565b91505092915050565b611ac48161188f565b82525050565b600081519050919050565b600082825260208201905092915050565b60005b83811015611b04578082015181840152602081019050611ae9565b60008484015250505050565b6000611b1b82611aca565b611b258185611ad5565b9350611b35818560208601611ae6565b611b3e816118cf565b840191505092915050565b7f4e487b7100000000000000000000000000000000000000000000000000000000600052602160045260246000fd5b60058110611b8957611b88611b49565b5b50565b6000819050611b9a82611b78565b919050565b6000611baa82611b8c565b9050919050565b611bba81611b9f565b82525050565b600060e083016000830151611bd86000860182611abb565b506020830151611beb6020860182611abb565b506040830151611bfe6040860182611abb565b506060830151611c116060860182611abb565b506080830151611c246080860182611abb565b5060a083015184820360a0860152611c3c8282611b10565b91505060c0830151611c5160c0860182611bb1565b508091505092915050565b60006020820190508181036000830152611c768184611bc0565b905092915050565b611c878161188f565b82525050565b6000602082019050611ca26000830184611c7e565b92915050565b611cb18161172e565b8114611cbc57600080fd5b50565b600081359050611cce81611ca8565b92915050565b60008060408385031215611ceb57611cea61169f565b5b6000611cf9858286016118b0565b9250506020611d0a85828601611cbf565b9150509250929050565b600080600060608486031215611d2d57611d2c61169f565b5b6000611d3b868287016118b0565b935050602084013567ffffffffffffffff811115611d5c57611d5b6116a4565b5b611d68868287016119dd565b925050604084013567ffffffffffffffff811115611d8957611d886116a4565b5b611d95868287016119dd565b9150509250925092565b600082825260208201905092915050565b6000611dbb82611aca565b611dc58185611d9f565b9350611dd5818560208601611ae6565b611dde816118cf565b840191505092915050565b611df281611b9f565b82525050565b600060e082019050611e0d600083018a611c7e565b611e1a6020830189611c7e565b611e276040830188611c7e565b611e346060830187611c7e565b611e416080830186611c7e565b81810360a0830152611e538185611db0565b9050611e6260c0830184611de9565b98975050505050505050565b6000819050919050565b6000611e93611e8e611e89846117f1565b611e6e565b6117f1565b9050919050565b6000611ea582611e78565b9050919050565b6000611eb782611e9a565b9050919050565b611ec781611eac565b82525050565b6000602082019050611ee26000830184611ebe565b92915050565b600081519050919050565b600082825260208201905092915050565b6000819050602082019050919050565b600060e083016000830151611f2c6000860182611abb565b506020830151611f3f6020860182611abb565b506040830151611f526040860182611abb565b506060830151611f656060860182611abb565b506080830151611f786080860182611abb565b5060a083015184820360a0860152611f908282611b10565b91505060c0830151611fa560c0860182611bb1565b508091505092915050565b6000611fbc8383611f14565b905092915050565b6000602082019050919050565b6000611fdc82611ee8565b611fe68185611ef3565b935083602082028501611ff885611f04565b8060005b8581101561203457848403895281516120158582611fb0565b945061202083611fc4565b925060208a01995050600181019050611ffc565b50829750879550505050505092915050565b600060208201905081810360008301526120608184611fd1565b905092915050565b6000806040838503121561207f5761207e61169f565b5b600061208d858286016118b0565b925050602061209e858286016118b0565b9150509250929050565b60006120b382611e9a565b9050919050565b6120c3816120a8565b82525050565b60006020820190506120de60008301846120ba565b92915050565b6000815190506120f381611823565b92915050565b60006020828403121561210f5761210e61169f565b5b600061211d848285016120e4565b91505092915050565b7f50726f6a65637420646f6573206e6f7420657869737400000000000000000000600082015250565b600061215c601683611d9f565b915061216782612126565b602082019050919050565b6000602082019050818103600083015261218b8161214f565b9050919050565b7f4e487b7100000000000000000000000000000000000000000000000000000000600052601160045260246000fd5b60006121cc8261188f565b91507fffffffffffffffffffffffffffffffffffffffffffffffffffffffffffffffff82036121fe576121fd612192565b5b600182019050919050565b7f4e487b7100000000000000000000000000000000000000000000000000000000600052602260045260246000fd5b6000600282049050600182168061225057607f821691505b60208210810361226357612262612209565b5b50919050565b60008190508160005260206000209050919050565b60006020601f8301049050919050565b600082821b905092915050565b6000600883026122cb7fffffffffffffffffffffffffffffffffffffffffffffffffffffffffffffffff8261228e565b6122d5868361228e565b95508019841693508086168417925050509392505050565b60006123086123036122fe8461188f565b611e6e565b61188f565b9050919050565b6000819050919050565b612322836122ed565b61233661232e8261230f565b84845461229b565b825550505050565b600090565b61234b61233e565b612356818484612319565b505050565b5b8181101561237a5761236f600082612343565b60018101905061235c565b5050565b601f8211156123bf5761239081612269565b6123998461227e565b810160208510156123a8578190505b6123bc6123b48561227e565b83018261235b565b50505b505050565b600082821c905092915050565b60006123e2600019846008026123c4565b1980831691505092915050565b60006123fb83836123d1565b9150826002028217905092915050565b61241482611aca565b67ffffffffffffffff81111561242d5761242c6118e0565b5b6124378254612238565b61244282828561237e565b600060209050601f8311600181146124755760008415612463578287015190505b61246d85826123ef565b8655506124d5565b601f19841661248386612269565b60005b828110156124ab57848901518255600182019150602085019450602081019050612486565b868310156124c857848901516124c4601f8916826123d1565b8355505b6001600288020188555050505b505050505050565b7f4e6f742070656e64696e67000000000000000000000000000000000000000000600082015250565b6000612513600b83611d9f565b915061251e826124dd565b602082019050919050565b6000602082019050818103600083015261254281612506565b9050919050565b61255281611811565b82525050565b600060208201905061256d6000830184612549565b92915050565b7f43726564697473206e6f74206d696e746564206f7220616c726561647920726560008201527f7469726564000000000000000000000000000000000000000000000000000000602082015250565b60006125cf602583611d9f565b91506125da82612573565b604082019050919050565b600060208201905081810360008301526125fe816125c2565b9050919050565b7f4f6e6c792070726f6a656374206f776e65722063616e2072657469726520637260008201527f6564697473000000000000000000000000000000000000000000000000000000602082015250565b6000612661602583611d9f565b915061266c82612605565b604082019050919050565b6000602082019050818103600083015261269081612654565b9050919050565b60006126a28261188f565b91506126ad8361188f565b92508282026126bb8161188f565b915082820484148315176126d2576126d1612192565b5b5092915050565b60006040820190506126ee6000830185612549565b6126fb6020830184611c7e565b9392505050565b60006040820190506127176000830185611c7e565b81810360208301526127298184611db0565b90509392505050565b7f4e487b7100000000000000000000000000000000000000000000000000000000600052603260045260246000fd5b7f4e6f742076657269666965640000000000000000000000000000000000000000600082015250565b6000612797600c83611d9f565b91506127a282612761565b602082019050919050565b600060208201905081810360008301526127c68161278a565b9050919050565b60006040820190506127e26000830185612549565b6127ef60208301846117c7565b939250505056fea264697066735822122018041ed7701913527d9000d036d0016531b2c304d7f74e6a0dfd75eb9942b16f64736f6c63430008140033",
  "linkReferences": {},
  "deployedLinkReferences": {}
}