{
  "_format": "hh-sol-artifact-1",
  "contractName": "MRVRegistry",
  "sourceName": "contracts/MRVRegistry.sol",
  "abi": [
    {
      "inputs": [
        {
          "internalType": "address",
          "name": "_creditToken",
          "type": "address"
        },
        {
          "internalType": "address",
          "name": "_projectNFT",
          "type": "address"
        }
      ],
      "stateMutability": "nonpayable",
      "type": "constructor"
    },
    {
      "inputs": [],
      "name": "AccessControlBadConfirmation",
      "type": "error"
    },
    {
      "inputs": [
        {
          "internalType": "address",
          "name": "account",
          "type": "address"
        },
        {
          "internalType": "bytes32",
          "name": "neededRole",
          "type": "bytes32"
        }
      ],
      "name": "AccessControlUnauthorizedAccount",
      "type": "error"
    },
    {
      "anonymous": false,
      "inputs": [
        {
          "indexed": true,
          "internalType": "uint256",
          "name": "measurementId",
          "type": "uint256"
        },
        {
          "indexed": false,
          "internalType": "uint256",
          "name": "amount",
          "type": "uint256"
        }
      ],
      "name": "CreditsIssued",
      "type": "event"
    },
    {
      "anonymous": false,
      "inputs": [
        {
          "indexed": true,
          "internalType": "uint256",
          "name": "id",
          "type": "uint256"
        },
        {
          "indexed": true,
          "internalType": "uint256",
          "name": "projectId",
          "type": "uint256"
        },
        {
          "indexed": false,
          "internalType": "uint256",
          "name": "co2Captured",
          "type": "uint256"
        }
      ],
      "name": "MeasurementAdded",
      "type": "event"
    },
    {
      "anonymous": false,
      "inputs": [
        {
          "indexed": true,
          "internalType": "uint256",
          "name": "id",
          "type": "uint256"
        },
        {
          "indexed": false,
          "internalType": "address",
          "name": "verifier",
          "type": "address"
        }
      ],
      "name": "MeasurementVerified",
      "type": "event"
    },
    {
      "anonymous": false,
      "inputs": [
        {
          "indexed": true,
          "internalType": "bytes32",
          "name": "role",
          "type": "bytes32"
        },
        {
          "indexed": true,
          "internalType": "bytes32",
          "name": "previousAdminRole",
          "type": "bytes32"
        },
        {
          "indexed": true,
          "internalType": "bytes32",
          "name": "newAdminRole",
          "type": "bytes32"
        }
      ],
      "name": "RoleAdminChanged",
      "type": "event"
    },
    {
      "anonymous": false,
      "inputs": [
        {
          "indexed": true,
          "internalType": "bytes32",
          "name": "role",
          "type": "bytes32"
        },
        {
          "indexed": true,
          "internalType": "address",
          "name": "account",
          "type": "address"
        },
        {
          "indexed": true,
          "internalType": "address",
          "name": "sender",
          "type": "address"
        }
      ],
      "name": "RoleGranted",
      "type": "event"
    },
    {
      "anonymous": false,
      "inputs": [
        {
          "indexed": true,
          "internalType": "bytes32",
          "name": "role",
          "type": "bytes32"
        },
        {
          "indexed": true,
          "internalType": "address",
          "name": "account",
          "type": "address"
        },
        {
          "indexed": true,
          "internalType": "address",
          "name": "sender",
          "type": "address"
        }
      ],
      "name": "RoleRevoked",
      "type": "event"
    },
    {
      "inputs": [],
      "name": "DEFAULT_ADMIN_ROLE",
      "outputs": [
        {
          "internalType": "bytes32",
          "name": "",
          "type": "bytes32"
        }
      ],
      "stateMutability": "view",
      "type": "function"
    },
    {
      "inputs": [],
      "name": "VERIFIER_ROLE",
      "outputs": [
        {
          "internalType": "bytes32",
          "name": "",
          "type": "bytes32"
        }
      ],
      "stateMutability": "view",
      "type": "function"
    },
    {
      "inputs": [
        {
          "internalType": "uint256",
          "name": "projectId",
          "type": "uint256"
        },
        {
          "internalType": "uint256",
          "name": "biomassAmount",
          "type": "uint256"
        },
        {
          "internalType": "uint256",
          "name": "co2Captured",
          "type": "uint256"
        },
        {
          "internalType": "string",
          "name": "dataHash",
          "type": "string"
        }
      ],
      "name": "addMeasurement",
      "outputs": [],
      "stateMutability": "nonpayable",
      "type": "function"
    },
    {
      "inputs": [],
      "name": "creditToken",
      "outputs": [
        {
          "internalType": "contract CarbonCreditToken",
          "name": "",
          "type": "address"
        }
      ],
      "stateMutability": "view",
      "type": "function"
    },
    {
      "inputs": [
        {
          "internalType": "uint256",
          "name": "measurementId",
          "type": "uint256"
        }
      ],
      "name": "getMeasurement",
      "outputs": [
        {
          "components": [
            {
              "internalType": "uint256",
              "name": "id",
              "type": "uint256"
            },
            {
              "internalType": "uint256",
              "name": "projectId",
              "type": "uint256"
            },
            {
              "internalType": "uint256",
              "name": "timestamp",
              "type": "uint256"
            },
            {
              "internalType": "uint256",
              "name": "biomassAmount",
              "type": "uint256"
            },
            {
              "internalType": "uint256",
              "name": "co2Captured",
              "type": "uint256"
            },
            {
              "internalType": "string",
              "name": "dataHash",
              "type": "string"
            },
            {
              "internalType": "enum MRVRegistry.Status",
              "name": "status",
              "type": "uint8"
            }
          ],
          "internalType": "struct MRVRegistry.Measurement",
          "name": "",
          "type": "tuple"
        }
      ],
      "stateMutability": "view",
      "type": "function"
    },
    {
      "inputs": [
        {
          "internalType": "uint256",
          "name": "projectId",
          "type": "uint256"
        }
      ],
      "name": "getProjectMeasurements",
      "outputs": [
        {
          "components": [
            {
              "internalType": "uint256",
              "name": "id",
              "type": "uint256"
            },
            {
              "internalType": "uint256",
              "name": "projectId",
              "type": "uint256"
            },
            {
              "internalType": "uint256",
              "name": "timestamp",
              "type": "uint256"
            },
            {
              "internalType": "uint256",
              "name": "biomassAmount",
              "type": "uint256"
            },
            {
              "internalType": "uint256",
              "name": "co2Captured",
              "type": "uint256"
            },
            {
              "internalType": "string",
              "name": "dataHash",
              "type": "string"
            },
            {
              "internalType": "enum MRVRegistry.Status",
              "name": "status",
              "type": "uint8"
            }
          ],
          "internalType": "struct MRVRegistry.Measurement[]",
          "name": "",
          "type": "tuple[]"
        }
      ],
      "stateMutability": "view",
      "type": "function"
    },
    {
      "inputs": [
        {
          "internalType": "bytes32",
          "name": "role",
          "type": "bytes32"
        }
      ],
      "name": "getRoleAdmin",
      "outputs": [
        {
          "internalType": "bytes32",
          "name": "",
          "type": "bytes32"
        }
      ],
      "stateMutability": "view",
      "type": "function"
    },
    {
      "inputs": [],
      "name": "getTotalMeasurements",
      "outputs": [
        {
          "internalType": "uint256",
          "name": "",
          "type": "uint256"
        }
      ],
      "stateMutability": "view",
      "type": "function"
    },
    {
      "inputs": [
        {
          "internalType": "bytes32",
          "name": "role",
          "type": "bytes32"
        },
        {
          "internalType": "address",
          "name": "account",
          "type": "address"
        }
      ],
      "name": "grantRole",
      "outputs": [],
      "stateMutability": "nonpayable",
      "type": "function"
    },
    {
      "inputs": [
        {
          "internalType": "bytes32",
          "name": "role",
          "type": "bytes32"
        },
        {
          "internalType": "address",
          "name": "account",
          "type": "address"
        }
      ],
      "name": "hasRole",
      "outputs": [
        {
          "internalType": "bool",
          "name": "",
          "type": "bool"
        }
      ],
      "stateMutability": "view",
      "type": "function"
    },
    {
      "inputs": [
        {
          "internalType": "uint256",
          "name": "measurementId",
          "type": "uint256"
        }
      ],
      "name": "issueCredits",
      "outputs": [],
      "stateMutability": "nonpayable",
      "type": "function"
    },
    {
      "inputs": [
        {
          "internalType": "uint256",
          "name": "",
          "type": "uint256"
        }
      ],
      "name": "measurements",
      "outputs": [
        {
          "internalType": "uint256",
          "name": "id",
          "type": "uint256"
        },
        {
          "internalType": "uint256",
          "name": "projectId",
          "type": "uint256"
        },
        {
          "internalType": "uint256",
          "name": "timestamp",
          "type": "uint256"
        },
        {
          "internalType": "uint256",
          "name": "biomassAmount",
          "type": "uint256"
        },
        {
          "internalType": "uint256",
          "name": "co2Captured",
          "type": "uint256"
        },
        {
          "internalType": "string",
          "name": "dataHash",
          "type": "string"
        },
        {
          "internalType": "enum MRVRegistry.Status",
          "name": "status",
          "type": "uint8"
        }
      ],
      "stateMutability": "view",
      "type": "function"
    },
    {
      "inputs": [
        {
          "internalType": "uint256",
          "name": "",
          "type": "uint256"
        },
        {
          "internalType": "uint256",
          "name": "",
          "type": "uint256"
        }
      ],
      "name": "projectMeasurements",
      "outputs": [
        {
          "internalType": "uint256",
          "name": "",
          "type": "uint256"
        }
      ],
      "stateMutability": "view",
      "type": "function"
    },
    {
      "inputs": [],
      "name": "projectNFT",
      "outputs": [
        {
          "internalType": "contract AlgaeProjectNFT",
          "name": "",
          "type": "address"
        }
      ],
      "stateMutability": "view",
      "type": "function"
    },
    {
      "inputs": [
        {
          "internalType": "bytes32",
          "name": "role",
          "type": "bytes32"
        },
        {
          "internalType": "address",
          "name": "callerConfirmation",
          "type": "address"
        }
      ],
      "name": "renounceRole",
      "outputs": [],
      "stateMutability": "nonpayable",
      "type": "function"
    },
    {
      "inputs": [
        {
          "internalType": "bytes32",
          "name": "role",
          "type": "bytes32"
        },
        {
          "internalType": "address",
          "name": "account",
          "type": "address"
        }
      ],
      "name": "revokeRole",
      "outputs": [],
      "stateMutability": "nonpayable",
      "type": "function"
    },
    {
      "inputs": [
        {
          "internalType": "bytes4",
          "name": "interfaceId",
          "type": "bytes4"
        }
      ],
      "name": "supportsInterface",
      "outputs": [
        {
          "internalType": "bool",
          "name": "",
          "type": "bool"
        }
      ],
      "stateMutability": "view",
      "type": "function"
    },
    {
      "inputs": [
        {
          "internalType": "uint256",
          "name": "measurementId",
          "type": "uint256"
        },
        {
          "internalType": "bool",
          "name": "approve",
          "type": "bool"
        }
      ],
      "name": "verifyMeasurement",
      "outputs": [],
      "stateMutability": "nonpayable",
      "type": "function"
    }
  ],
  "bytecode": "0x60806040523480156200001157600080fd5b50604051620026ab380380620026ab8339818101604052810190620000379190620002e9565b81600160006101000a81548173ffffffffffffffffffffffffffffffffffffffff021916908373ffffffffffffffffffffffffffffffffffffffff16021790555080600260006101000a81548173ffffffffffffffffffffffffffffffffffffffff021916908373ffffffffffffffffffffffffffffffffffffffff160217905550620000ce6000801b336200010a60201b60201c565b50620001017f0ce23c3e399818cfee81a7ab0880f714e53d7672b08df0fa62f2843416e1ea09336200010a60201b60201c565b50505062000330565b60006200011e83836200020d60201b60201c565b6200020257600160008085815260200190815260200160002060000160008473ffffffffffffffffffffffffffffffffffffffff1673ffffffffffffffffffffffffffffffffffffffff16815260200190815260200160002060006101000a81548160ff0219169083151502179055506200019e6200027760201b60201c565b73ffffffffffffffffffffffffffffffffffffffff168273ffffffffffffffffffffffffffffffffffffffff16847f2f8788117e7eff1d82e926ec794901d17c78024a50270940304540a733656f0d60405160405180910390a46001905062000207565b600090505b92915050565b600080600084815260200190815260200160002060000160008373ffffffffffffffffffffffffffffffffffffffff1673ffffffffffffffffffffffffffffffffffffffff16815260200190815260200160002060009054906101000a900460ff16905092915050565b600033905090565b600080fd5b600073ffffffffffffffffffffffffffffffffffffffff82169050919050565b6000620002b18262000284565b9050919050565b620002c381620002a4565b8114620002cf57600080fd5b50565b600081519050620002e381620002b8565b92915050565b600080604083850312156200030357620003026200027f565b5b60006200031385828601620002d2565b92505060206200032685828601620002d2565b9150509250929050565b61236b80620003406000396000f3fe608060405234801561001057600080fd5b50600436106101165760003560e01c8063899e5d85116100a2578063a217fddf11610071578063a217fddf1461031d578063a2fd69171461033b578063d547741f14610359578063e7705db614610375578063ecab818c1461039357610116565b8063899e5d851461026f5780638d56bd131461028d57806391d14854146102bd5780639a2f4fa8146102ed57610116565b806336568abe116100e957806336568abe146101b357806337c79e66146101cf5780634542fee4146101ff578063692c28521461021d5780637791a7721461023957610116565b806301ffc9a71461011b578063248a9ca31461014b5780632f2ff15d1461017b578063313c18c814610197575b600080fd5b6101356004803603810190610130919061141f565b6103af565b6040516101429190611467565b60405180910390f35b610165600480360381019061016091906114b8565b610429565b60405161017291906114f4565b60405180910390f35b6101956004803603810190610190919061156d565b610448565b005b6101b160048036038101906101ac9190611729565b61046a565b005b6101cd60048036038101906101c8919061156d565b6106dd565b005b6101e960048036038101906101e491906117ac565b610758565b6040516101f6919061197a565b60405180910390f35b610207610884565b60405161021491906119ab565b60405180910390f35b610237600480360381019061023291906119f2565b61088e565b005b610253600480360381019061024e91906117ac565b6109eb565b6040516102669796959493929190611a8b565b60405180910390f35b610277610ac2565b6040516102849190611b60565b60405180910390f35b6102a760048036038101906102a291906117ac565b610ae8565b6040516102b49190611cd9565b60405180910390f35b6102d760048036038101906102d2919061156d565b610d28565b6040516102e49190611467565b60405180910390f35b61030760048036038101906103029190611cfb565b610d92565b60405161031491906119ab565b60405180910390f35b610325610dc3565b60405161033291906114f4565b60405180910390f35b610343610dca565b6040516103509190611d5c565b60405180910390f35b610373600480360381019061036e919061156d565b610df0565b005b61037d610e12565b60405161038a91906114f4565b60405180910390f35b6103ad60048036038101906103a891906117ac565b610e36565b005b60007f7965db0b000000000000000000000000000000000000000000000000000000007bffffffffffffffffffffffffffffffffffffffffffffffffffffffff1916827bffffffffffffffffffffffffffffffffffffffffffffffffffffffff191614806104225750610421826110aa565b5b9050919050565b6000806000838152602001908152602001600020600101549050919050565b61045182610429565b61045a81611114565b6104648383611128565b50505050565b600073ffffffffffffffffffffffffffffffffffffffff16600260009054906101000a900473ffffffffffffffffffffffffffffffffffffffff1673ffffffffffffffffffffffffffffffffffffffff16636352211e866040518263ffffffff1660e01b81526004016104dd91906119ab565b602060405180830381865afa1580156104fa573d6000803e3d6000fd5b505050506040513d601f19601f8201168201806040525081019061051e9190611d8c565b73ffffffffffffffffffffffffffffffffffffffff1603610574576040517f08c379a000000000000000000000000000000000000000000000000000000000815260040161056b90611e05565b60405180910390fd5b60006003600081548092919061058990611e54565b9190505590506040518060e00160405280828152602001868152602001428152602001858152602001848152602001838152602001600060038111156105d2576105d1611867565b5b81525060046000838152602001908152602001600020600082015181600001556020820151816001015560408201518160020155606082015181600301556080820151816004015560a082015181600501908161062f919061209e565b5060c08201518160060160006101000a81548160ff0219169083600381111561065b5761065a611867565b5b02179055509050506005600086815260200190815260200160002081908060018154018082558091505060019003906000526020600020016000909190919091505584817fefcb3fe20e6ef58abf3154b767c5e21f87b4eebffb7442c561890a7eca297d61856040516106ce91906119ab565b60405180910390a35050505050565b6106e5611219565b73ffffffffffffffffffffffffffffffffffffffff168173ffffffffffffffffffffffffffffffffffffffff1614610749576040517f6697b23200000000000000000000000000000000000000000000000000000000815260040160405180910390fd5b6107538282611221565b505050565b610760611364565b600460008381526020019081526020016000206040518060e001604052908160008201548152602001600182015481526020016002820154815260200160038201548152602001600482015481526020016005820180546107c090611ecb565b80601f01602080910402602001604051908101604052809291908181526020018280546107ec90611ecb565b80156108395780601f1061080e57610100808354040283529160200191610839565b820191906000526020600020905b81548152906001019060200180831161081c57829003601f168201915b505050505081526020016006820160009054906101000a900460ff16600381111561086757610866611867565b5b600381111561087957610878611867565b5b815250509050919050565b6000600354905090565b7f0ce23c3e399818cfee81a7ab0880f714e53d7672b08df0fa62f2843416e1ea096108b881611114565b6000600460008581526020019081526020016000209050600060038111156108e3576108e2611867565b5b8160060160009054906101000a900460ff16600381111561090757610906611867565b5b14610947576040517f08c379a000000000000000000000000000000000000000000000000000000000815260040161093e906121bc565b60405180910390fd5b82156109b75760018160060160006101000a81548160ff0219169083600381111561097557610974611867565b5b0217905550837f531dc9e8c1657349d3e68fbc8959d4a7de48c43d5e4b9a217e8f0dbae103ae42336040516109aa91906121eb565b60405180910390a26109e5565b60028160060160006101000a81548160ff021916908360038111156109df576109de611867565b5b02179055505b50505050565b6004602052806000526040600020600091509050806000015490806001015490806002015490806003015490806004015490806005018054610a2c90611ecb565b80601f0160208091040260200160405190810160405280929190818152602001828054610a5890611ecb565b8015610aa55780601f10610a7a57610100808354040283529160200191610aa5565b820191906000526020600020905b815481529060010190602001808311610a8857829003601f168201915b5050505050908060060160009054906101000a900460ff16905087565b600160009054906101000a900473ffffffffffffffffffffffffffffffffffffffff1681565b6060600060056000848152602001908152602001600020805480602002602001604051908101604052809291908181526020018280548015610b4957602002820191906000526020600020905b815481526020019060010190808311610b35575b505050505090506000815167ffffffffffffffff811115610b6d57610b6c6115fe565b5b604051908082528060200260200182016040528015610ba657816020015b610b93611364565b815260200190600190039081610b8b5790505b50905060005b8251811015610d1d5760046000848381518110610bcc57610bcb612206565b5b602002602001015181526020019081526020016000206040518060e00160405290816000820154815260200160018201548152602001600282015481526020016003820154815260200160048201548152602001600582018054610c2f90611ecb565b80601f0160208091040260200160405190810160405280929190818152602001828054610c5b90611ecb565b8015610ca85780601f10610c7d57610100808354040283529160200191610ca8565b820191906000526020600020905b815481529060010190602001808311610c8b57829003601f168201915b505050505081526020016006820160009054906101000a900460ff166003811115610cd657610cd5611867565b5b6003811115610ce857610ce7611867565b5b81525050828281518110610cff57610cfe612206565b5b60200260200101819052508080610d1590611e54565b915050610bac565b508092505050919050565b600080600084815260200190815260200160002060000160008373ffffffffffffffffffffffffffffffffffffffff1673ffffffffffffffffffffffffffffffffffffffff16815260200190815260200160002060009054906101000a900460ff16905092915050565b60056020528160005260406000208181548110610dae57600080fd5b90600052602060002001600091509150505481565b6000801b81565b600260009054906101000a900473ffffffffffffffffffffffffffffffffffffffff1681565b610df982610429565b610e0281611114565b610e0c8383611221565b50505050565b7f0ce23c3e399818cfee81a7ab0880f714e53d7672b08df0fa62f2843416e1ea0981565b7f0ce23c3e399818cfee81a7ab0880f714e53d7672b08df0fa62f2843416e1ea09610e6081611114565b600060046000848152602001908152602001600020905060016003811115610e8b57610e8a611867565b5b8160060160009054906101000a900460ff166003811115610eaf57610eae611867565b5b14610eef576040517f08c379a0000000000000000000000000000000000000000000000000000000008152600401610ee690612281565b60405180910390fd5b60038160060160006101000a81548160ff02191690836003811115610f1757610f16611867565b5b02179055506000670de0b6b3a76400008260040154610f3691906122a1565b90506000600260009054906101000a900473ffffffffffffffffffffffffffffffffffffffff1673ffffffffffffffffffffffffffffffffffffffff16636352211e84600101546040518263ffffffff1660e01b8152600401610f9991906119ab565b602060405180830381865afa158015610fb6573d6000803e3d6000fd5b505050506040513d601f19601f82011682018060405250810190610fda9190611d8c565b9050600160009054906101000a900473ffffffffffffffffffffffffffffffffffffffff1673ffffffffffffffffffffffffffffffffffffffff166340c10f1982846040518363ffffffff1660e01b81526004016110399291906122e3565b600060405180830381600087803b15801561105357600080fd5b505af1158015611067573d6000803e3d6000fd5b50505050847f3e7363ad1c012fb23364530943587c40870d641e117d3e63614f6761e58f5e138360405161109b91906119ab565b60405180910390a25050505050565b60007f01ffc9a7000000000000000000000000000000000000000000000000000000007bffffffffffffffffffffffffffffffffffffffffffffffffffffffff1916827bffffffffffffffffffffffffffffffffffffffffffffffffffffffff1916149050919050565b61112581611120611219565b611313565b50565b60006111348383610d28565b61120e57600160008085815260200190815260200160002060000160008473ffffffffffffffffffffffffffffffffffffffff1673ffffffffffffffffffffffffffffffffffffffff16815260200190815260200160002060006101000a81548160ff0219169083151502179055506111ab611219565b73ffffffffffffffffffffffffffffffffffffffff168273ffffffffffffffffffffffffffffffffffffffff16847f2f8788117e7eff1d82e926ec794901d17c78024a50270940304540a733656f0d60405160405180910390a460019050611213565b600090505b92915050565b600033905090565b600061122d8383610d28565b1561130857600080600085815260200190815260200160002060000160008473ffffffffffffffffffffffffffffffffffffffff1673ffffffffffffffffffffffffffffffffffffffff16815260200190815260200160002060006101000a81548160ff0219169083151502179055506112a5611219565b73ffffffffffffffffffffffffffffffffffffffff168273ffffffffffffffffffffffffffffffffffffffff16847ff6391f5c32d9c69d2a47ea670b442974b53935d1edc7fd64eb21e047a839171b60405160405180910390a46001905061130d565b600090505b92915050565b61131d8282610d28565b6113605780826040517fe2517d3f00000000000000000000000000000000000000000000000000000000815260040161135792919061230c565b60405180910390fd5b5050565b6040518060e00160405280600081526020016000815260200160008152602001600081526020016000815260200160608152602001600060038111156113ad576113ac611867565b5b81525090565b6000604051905090565b600080fd5b600080fd5b60007fffffffff0000000000000000000000000000000000000000000000000000000082169050919050565b6113fc816113c7565b811461140757600080fd5b50565b600081359050611419816113f3565b92915050565b600060208284031215611435576114346113bd565b5b60006114438482850161140a565b91505092915050565b60008115159050919050565b6114618161144c565b82525050565b600060208201905061147c6000830184611458565b92915050565b6000819050919050565b61149581611482565b81146114a057600080fd5b50565b6000813590506114b28161148c565b92915050565b6000602082840312156114ce576114cd6113bd565b5b60006114dc848285016114a3565b91505092915050565b6114ee81611482565b82525050565b600060208201905061150960008301846114e5565b92915050565b600073ffffffffffffffffffffffffffffffffffffffff82169050919050565b600061153a8261150f565b9050919050565b61154a8161152f565b811461155557600080fd5b50565b60008135905061156781611541565b92915050565b60008060408385031215611584576115836113bd565b5b6000611592858286016114a3565b92505060206115a385828601611558565b9150509250929050565b6000819050919050565b6115c0816115ad565b81146115cb57600080fd5b50565b6000813590506115dd816115b7565b92915050565b600080fd5b600080fd5b6000601f19601f8301169050919050565b7f4e487b7100000000000000000000000000000000000000000000000000000000600052604160045260246000fd5b611636826115ed565b810181811067ffffffffffffffff82111715611655576116546115fe565b5b80604052505050565b60006116686113b3565b9050611674828261162d565b919050565b600067ffffffffffffffff821115611694576116936115fe565b5b61169d826115ed565b9050602081019050919050565b82818337600083830152505050565b60006116cc6116c784611679565b61165e565b9050828152602081018484840111156116e8576116e76115e8565b5b6116f38482856116aa565b509392505050565b600082601f8301126117105761170f6115e3565b5b81356117208482602086016116b9565b91505092915050565b60008060008060808587031215611743576117426113bd565b5b6000611751878288016115ce565b9450506020611762878288016115ce565b9350506040611773878288016115ce565b925050606085013567ffffffffffffffff811115611794576117936113c2565b5b6117a0878288016116fb565b91505092959194509250565b6000602082840312156117c2576117c16113bd565b5b60006117d0848285016115ce565b91505092915050565b6117e2816115ad565b82525050565b600081519050919050565b600082825260208201905092915050565b60005b83811015611822578082015181840152602081019050611807565b60008484015250505050565b6000611839826117e8565b61184381856117f3565b9350611853818560208601611804565b61185c816115ed565b840191505092915050565b7f4e487b7100000000000000000000000000000000000000000000000000000000600052602160045260246000fd5b600481106118a7576118a6611867565b5b50565b60008190506118b882611896565b919050565b60006118c8826118aa565b9050919050565b6118d8816118bd565b82525050565b600060e0830160008301516118f660008601826117d9565b50602083015161190960208601826117d9565b50604083015161191c60408601826117d9565b50606083015161192f60608601826117d9565b50608083015161194260808601826117d9565b5060a083015184820360a086015261195a828261182e565b91505060c083015161196f60c08601826118cf565b508091505092915050565b6000602082019050818103600083015261199481846118de565b905092915050565b6119a5816115ad565b82525050565b60006020820190506119c0600083018461199c565b92915050565b6119cf8161144c565b81146119da57600080fd5b50565b6000813590506119ec816119c6565b92915050565b60008060408385031215611a0957611a086113bd565b5b6000611a17858286016115ce565b9250506020611a28858286016119dd565b9150509250929050565b600082825260208201905092915050565b6000611a4e826117e8565b611a588185611a32565b9350611a68818560208601611804565b611a71816115ed565b840191505092915050565b611a85816118bd565b82525050565b600060e082019050611aa0600083018a61199c565b611aad602083018961199c565b611aba604083018861199c565b611ac7606083018761199c565b611ad4608083018661199c565b81810360a0830152611ae68185611a43565b9050611af560c0830184611a7c565b98975050505050505050565b6000819050919050565b6000611b26611b21611b1c8461150f565b611b01565b61150f565b9050919050565b6000611b3882611b0b565b9050919050565b6000611b4a82611b2d565b9050919050565b611b5a81611b3f565b82525050565b6000602082019050611b756000830184611b51565b92915050565b600081519050919050565b600082825260208201905092915050565b6000819050602082019050919050565b600060e083016000830151611bbf60008601826117d9565b506020830151611bd260208601826117d9565b506040830151611be560408601826117d9565b506060830151611bf860608601826117d9565b506080830151611c0b60808601826117d9565b5060a083015184820360a0860152611c23828261182e565b91505060c0830151611c3860c08601826118cf565b508091505092915050565b6000611c4f8383611ba7565b905092915050565b6000602082019050919050565b6000611c6f82611b7b565b611c798185611b86565b935083602082028501611c8b85611b97565b8060005b85811015611cc75784840389528151611ca88582611c43565b9450611cb383611c57565b925060208a01995050600181019050611c8f565b50829750879550505050505092915050565b60006020820190508181036000830152611cf38184611c64565b905092915050565b60008060408385031215611d1257611d116113bd565b5b6000611d20858286016115ce565b9250506020611d31858286016115ce565b9150509250929050565b6000611d4682611b2d565b9050919050565b611d5681611d3b565b82525050565b6000602082019050611d716000830184611d4d565b92915050565b600081519050611d8681611541565b92915050565b600060208284031215611da257611da16113bd565b5b6000611db084828501611d77565b91505092915050565b7f50726f6a65637420646f6573206e6f7420657869737400000000000000000000600082015250565b6000611def601683611a32565b9150611dfa82611db9565b602082019050919050565b60006020820190508181036000830152611e1e81611de2565b9050919050565b7f4e487b7100000000000000000000000000000000000000000000000000000000600052601160045260246000fd5b6000611e5f826115ad565b91507fffffffffffffffffffffffffffffffffffffffffffffffffffffffffffffffff8203611e9157611e90611e25565b5b600182019050919050565b7f4e487b7100000000000000000000000000000000000000000000000000000000600052602260045260246000fd5b60006002820490506001821680611ee357607f821691505b602082108103611ef657611ef5611e9c565b5b50919050565b60008190508160005260206000209050919050565b60006020601f8301049050919050565b600082821b905092915050565b600060088302611f5e7fffffffffffffffffffffffffffffffffffffffffffffffffffffffffffffffff82611f21565b611f688683611f21565b95508019841693508086168417925050509392505050565b6000611f9b611f96611f91846115ad565b611b01565b6115ad565b9050919050565b6000819050919050565b611fb583611f80565b611fc9611fc182611fa2565b848454611f2e565b825550505050565b600090565b611fde611fd1565b611fe9818484611fac565b505050565b5b8181101561200d57612002600082611fd6565b600181019050611fef565b5050565b601f8211156120525761202381611efc565b61202c84611f11565b8101602085101561203b578190505b61204f61204785611f11565b830182611fee565b50505b505050565b600082821c905092915050565b600061207560001984600802612057565b1980831691505092915050565b600061208e8383612064565b9150826002028217905092915050565b6120a7826117e8565b67ffffffffffffffff8111156120c0576120bf6115fe565b5b6120ca8254611ecb565b6120d5828285612011565b600060209050601f83116001811461210857600084156120f6578287015190505b6121008582612082565b865550612168565b601f19841661211686611efc565b60005b8281101561213e57848901518255600182019150602085019450602081019050612119565b8683101561215b5784890151612157601f891682612064565b8355505b6001600288020188555050505b505050505050565b7f4e6f742070656e64696e67000000000000000000000000000000000000000000600082015250565b60006121a6600b83611a32565b91506121b182612170565b602082019050919050565b600060208201905081810360008301526121d581612199565b9050919050565b6121e58161152f565b82525050565b600060208201905061220060008301846121dc565b92915050565b7f4e487b7100000000000000000000000000000000000000000000000000000000600052603260045260246000fd5b7f4e6f742076657269666965640000000000000000000000000000000000000000600082015250565b600061226b600c83611a32565b915061227682612235565b602082019050919050565b6000602082019050818103600083015261229a8161225e565b9050919050565b60006122ac826115ad565b91506122b7836115ad565b92508282026122c5816115ad565b915082820484148315176122dc576122db611e25565b5b5092915050565b60006040820190506122f860008301856121dc565b612305602083018461199c565b9392505050565b600060408201905061232160008301856121dc565b61232e60208301846114e5565b939250505056fea264697066735822122047454c80f7ee7ce1e4fc40afe49dfdc4e7837c63d53cc6a1c2dc65820dddaaea64736f6c63430008140033",
  "linkReferences": {},
  "deployedLinkReferences": {}
}